{
  "_format": "hh-sol-artifact-1",
  "contractName": "EducationalData",
  "sourceName": "contracts/Education.sol",
  "abi": [
    {
      "inputs": [
        {
          "internalType": "address",
          "name": "useraddress",
          "type": "address"
        }
      ],
      "name": "ConnectedAccountType",
      "outputs": [
        {
          "internalType": "uint256",
          "name": "",
          "type": "uint256"
        }
      ],
      "stateMutability": "view",
      "type": "function"
    },
    {
      "inputs": [
        {
          "internalType": "address",
          "name": "",
          "type": "address"
        }
      ],
      "name": "accounts",
      "outputs": [
        {
          "internalType": "uint256",
          "name": "",
          "type": "uint256"
        }
      ],
      "stateMutability": "view",
      "type": "function"
    },
    {
      "inputs": [
        {
          "internalType": "address",
          "name": "_user",
          "type": "address"
        },
        {
          "internalType": "string",
          "name": "url",
          "type": "string"
        }
      ],
      "name": "addPrescription",
      "outputs": [],
      "stateMutability": "nonpayable",
      "type": "function"
    },
    {
      "inputs": [
        {
          "internalType": "string",
          "name": "courseName",
          "type": "string"
        },
        {
          "internalType": "string",
          "name": "time",
          "type": "string"
        },
        {
          "internalType": "string",
          "name": "topic",
          "type": "string"
        },
        {
          "internalType": "string",
          "name": "date",
          "type": "string"
        },
        {
          "internalType": "string",
          "name": "completeStatus",
          "type": "string"
        }
      ],
      "name": "addStudentPersonalData",
      "outputs": [],
      "stateMutability": "nonpayable",
      "type": "function"
    },
    {
      "inputs": [
        {
          "internalType": "address",
          "name": "_StudentAddress",
          "type": "address"
        }
      ],
      "name": "getStudent",
      "outputs": [
        {
          "components": [
            {
              "internalType": "address",
              "name": "StudentAddress",
              "type": "address"
            },
            {
              "internalType": "uint256",
              "name": "StudentID",
              "type": "uint256"
            },
            {
              "internalType": "string",
              "name": "name",
              "type": "string"
            },
            {
              "internalType": "string",
              "name": "gender",
              "type": "string"
            },
            {
              "internalType": "uint256",
              "name": "age",
              "type": "uint256"
            },
            {
              "internalType": "string",
              "name": "location",
              "type": "string"
            },
            {
              "internalType": "bool",
              "name": "isAdded",
              "type": "bool"
            },
            {
              "internalType": "string",
              "name": "userType",
              "type": "string"
            },
            {
              "internalType": "string[]",
              "name": "imgUrl",
              "type": "string[]"
            },
            {
              "components": [
                {
                  "internalType": "string",
                  "name": "CourseName",
                  "type": "string"
                },
                {
                  "internalType": "string",
                  "name": "Time",
                  "type": "string"
                },
                {
                  "internalType": "string",
                  "name": "Topic",
                  "type": "string"
                },
                {
                  "internalType": "string",
                  "name": "Date",
                  "type": "string"
                },
                {
                  "internalType": "string",
                  "name": "completeStatus",
                  "type": "string"
                }
              ],
              "internalType": "struct EducationalData.StudentPersonalData[]",
              "name": "StudentPersonalData",
              "type": "tuple[]"
            },
            {
              "internalType": "address[]",
              "name": "personalTeacher",
              "type": "address[]"
            }
          ],
          "internalType": "struct EducationalData.Student",
          "name": "",
          "type": "tuple"
        }
      ],
      "stateMutability": "view",
      "type": "function"
    },
    {
      "inputs": [
        {
          "internalType": "address",
          "name": "_TeacherAddress",
          "type": "address"
        }
      ],
      "name": "getTeacher",
      "outputs": [
        {
          "components": [
            {
              "internalType": "address",
              "name": "TeacherAddress",
              "type": "address"
            },
            {
              "internalType": "uint256",
              "name": "TeacherID",
              "type": "uint256"
            },
            {
              "internalType": "string",
              "name": "name",
              "type": "string"
            },
            {
              "internalType": "string",
              "name": "specialty",
              "type": "string"
            },
            {
              "internalType": "uint256",
              "name": "BMDCNumber",
              "type": "uint256"
            },
            {
              "internalType": "uint256",
              "name": "yearOfExperience",
              "type": "uint256"
            },
            {
              "internalType": "address[]",
              "name": "StudentToTeacher",
              "type": "address[]"
            },
            {
              "internalType": "string[]",
              "name": "StudentTest",
              "type": "string[]"
            },
            {
              "internalType": "bool",
              "name": "isAdded",
              "type": "bool"
            },
            {
              "internalType": "address[]",
              "name": "personalStudent",
              "type": "address[]"
            },
            {
              "internalType": "string",
              "name": "userType",
              "type": "string"
            }
          ],
          "internalType": "struct EducationalData.Teacher",
          "name": "",
          "type": "tuple"
        }
      ],
      "stateMutability": "view",
      "type": "function"
    },
    {
      "inputs": [
        {
          "internalType": "uint256",
          "name": "StudentID",
          "type": "uint256"
        },
        {
          "internalType": "string",
          "name": "name",
          "type": "string"
        },
        {
          "internalType": "string",
          "name": "gender",
          "type": "string"
        },
        {
          "internalType": "uint256",
          "name": "age",
          "type": "uint256"
        },
        {
          "internalType": "string",
          "name": "location",
          "type": "string"
        }
      ],
      "name": "setStudent",
      "outputs": [],
      "stateMutability": "nonpayable",
      "type": "function"
    },
    {
      "inputs": [
        {
          "internalType": "uint256",
          "name": "TeacherID",
          "type": "uint256"
        },
        {
          "internalType": "string",
          "name": "name",
          "type": "string"
        },
        {
          "internalType": "string",
          "name": "specialty",
          "type": "string"
        },
        {
          "internalType": "uint256",
          "name": "BMDCNumber",
          "type": "uint256"
        },
        {
          "internalType": "uint256",
          "name": "yearOfExperience",
          "type": "uint256"
        }
      ],
      "name": "setTeacher",
      "outputs": [],
      "stateMutability": "nonpayable",
      "type": "function"
    },
    {
      "inputs": [
        {
          "internalType": "address",
          "name": "StudentAddress",
          "type": "address"
        }
      ],
      "name": "showSharedPrescription",
      "outputs": [
        {
          "internalType": "string[]",
          "name": "imageUrl",
          "type": "string[]"
        }
      ],
      "stateMutability": "view",
      "type": "function"
    },
    {
      "inputs": [
        {
          "internalType": "address",
          "name": "useraddress",
          "type": "address"
        }
      ],
      "name": "transferDataByStudent",
      "outputs": [],
      "stateMutability": "nonpayable",
      "type": "function"
    }
  ],
  "bytecode": "0x608060405234801561001057600080fd5b50613206806100206000396000f3fe608060405234801561001057600080fd5b506004361061009e5760003560e01c8063887f6f8d11610066578063887f6f8d1461016b578063a3e12bc01461019b578063bee36bb8146101b7578063c09c7d06146101d3578063fb4326fa146101ef5761009e565b80632a1ebd01146100a35780635ddf7296146100d35780635e5c06e2146100ef5780636b7b44d71461011f578063716cce321461014f575b600080fd5b6100bd60048036038101906100b89190611f94565b61021f565b6040516100ca9190611fda565b60405180910390f35b6100ed60048036038101906100e89190611f94565b6102e8565b005b61010960048036038101906101049190611f94565b61057a565b6040516101169190611fda565b60405180910390f35b61013960048036038101906101349190611f94565b610592565b604051610146919061249c565b60405180910390f35b610169600480360381019061016491906125f3565b610de8565b005b61018560048036038101906101809190611f94565b610ef7565b6040516101929190612780565b60405180910390f35b6101b560048036038101906101b091906127a2565b611012565b005b6101d160048036038101906101cc919061282a565b6114f0565b005b6101ed60048036038101906101e891906128f9565b61170a565b005b61020960048036038101906102049190611f94565b61191b565b6040516102169190612abe565b60405180910390f35b6000806000808473ffffffffffffffffffffffffffffffffffffffff1673ffffffffffffffffffffffffffffffffffffffff1681526020019081526020016000205490506001600281111561027757610276612ae0565b5b810361028657809150506102e3565b60028081111561029957610298612ae0565b5b81036102a857809150506102e3565b6040517f08c379a00000000000000000000000000000000000000000000000000000000081526004016102da90612b6c565b60405180910390fd5b919050565b60008060008373ffffffffffffffffffffffffffffffffffffffff1673ffffffffffffffffffffffffffffffffffffffff16815260200190815260200160002054905060028081111561033e5761033d612ae0565b5b60020361057657600160003373ffffffffffffffffffffffffffffffffffffffff1673ffffffffffffffffffffffffffffffffffffffff16815260200190815260200160002060060160009054906101000a900460ff166103d4576040517f08c379a00000000000000000000000000000000000000000000000000000000081526004016103cb90612bd8565b60405180910390fd5b600160028111156103e8576103e7612ae0565b5b81148015610408575060028081111561040457610403612ae0565b5b6002145b1561053a576000600260008473ffffffffffffffffffffffffffffffffffffffff1673ffffffffffffffffffffffffffffffffffffffff1681526020019081526020016000206004015403610492576040517f08c379a000000000000000000000000000000000000000000000000000000000815260040161048990612c44565b60405180910390fd5b600260008373ffffffffffffffffffffffffffffffffffffffff1673ffffffffffffffffffffffffffffffffffffffff168152602001908152602001600020600601339080600181540180825580915050600190039060005260206000200160009091909190916101000a81548173ffffffffffffffffffffffffffffffffffffffff021916908373ffffffffffffffffffffffffffffffffffffffff160217905550610575565b6040517f08c379a000000000000000000000000000000000000000000000000000000000815260040161056c90612cd6565b60405180910390fd5b5b5050565b60006020528060005260406000206000915090505481565b61059a611e3e565b600160008373ffffffffffffffffffffffffffffffffffffffff1673ffffffffffffffffffffffffffffffffffffffff16815260200190815260200160002060060160009054906101000a900460ff16610629576040517f08c379a000000000000000000000000000000000000000000000000000000000815260040161062090612d42565b60405180910390fd5b600160008373ffffffffffffffffffffffffffffffffffffffff1673ffffffffffffffffffffffffffffffffffffffff168152602001908152602001600020604051806101600160405290816000820160009054906101000a900473ffffffffffffffffffffffffffffffffffffffff1673ffffffffffffffffffffffffffffffffffffffff1673ffffffffffffffffffffffffffffffffffffffff168152602001600182015481526020016002820180546106e490612d91565b80601f016020809104026020016040519081016040528092919081815260200182805461071090612d91565b801561075d5780601f106107325761010080835404028352916020019161075d565b820191906000526020600020905b81548152906001019060200180831161074057829003601f168201915b5050505050815260200160038201805461077690612d91565b80601f01602080910402602001604051908101604052809291908181526020018280546107a290612d91565b80156107ef5780601f106107c4576101008083540402835291602001916107ef565b820191906000526020600020905b8154815290600101906020018083116107d257829003601f168201915b505050505081526020016004820154815260200160058201805461081290612d91565b80601f016020809104026020016040519081016040528092919081815260200182805461083e90612d91565b801561088b5780601f106108605761010080835404028352916020019161088b565b820191906000526020600020905b81548152906001019060200180831161086e57829003601f168201915b505050505081526020016006820160009054906101000a900460ff161515151581526020016007820180546108bf90612d91565b80601f01602080910402602001604051908101604052809291908181526020018280546108eb90612d91565b80156109385780601f1061090d57610100808354040283529160200191610938565b820191906000526020600020905b81548152906001019060200180831161091b57829003601f168201915b5050505050815260200160088201805480602002602001604051908101604052809291908181526020016000905b82821015610a1257838290600052602060002001805461098590612d91565b80601f01602080910402602001604051908101604052809291908181526020018280546109b190612d91565b80156109fe5780601f106109d3576101008083540402835291602001916109fe565b820191906000526020600020905b8154815290600101906020018083116109e157829003601f168201915b505050505081526020019060010190610966565b50505050815260200160098201805480602002602001604051908101604052809291908181526020016000905b82821015610d4b57838290600052602060002090600502016040518060a0016040529081600082018054610a7290612d91565b80601f0160208091040260200160405190810160405280929190818152602001828054610a9e90612d91565b8015610aeb5780601f10610ac057610100808354040283529160200191610aeb565b820191906000526020600020905b815481529060010190602001808311610ace57829003601f168201915b50505050508152602001600182018054610b0490612d91565b80601f0160208091040260200160405190810160405280929190818152602001828054610b3090612d91565b8015610b7d5780601f10610b5257610100808354040283529160200191610b7d565b820191906000526020600020905b815481529060010190602001808311610b6057829003601f168201915b50505050508152602001600282018054610b9690612d91565b80601f0160208091040260200160405190810160405280929190818152602001828054610bc290612d91565b8015610c0f5780601f10610be457610100808354040283529160200191610c0f565b820191906000526020600020905b815481529060010190602001808311610bf257829003601f168201915b50505050508152602001600382018054610c2890612d91565b80601f0160208091040260200160405190810160405280929190818152602001828054610c5490612d91565b8015610ca15780601f10610c7657610100808354040283529160200191610ca1565b820191906000526020600020905b815481529060010190602001808311610c8457829003601f168201915b50505050508152602001600482018054610cba90612d91565b80601f0160208091040260200160405190810160405280929190818152602001828054610ce690612d91565b8015610d335780601f10610d0857610100808354040283529160200191610d33565b820191906000526020600020905b815481529060010190602001808311610d1657829003601f168201915b50505050508152505081526020019060010190610a3f565b505050508152602001600a8201805480602002602001604051908101604052809291908181526020018280548015610dd857602002820191906000526020600020905b8160009054906101000a900473ffffffffffffffffffffffffffffffffffffffff1673ffffffffffffffffffffffffffffffffffffffff1681526020019060010190808311610d8e575b5050505050815250509050919050565b60006040518060a00160405280878152602001868152602001858152602001848152602001838152509050600160003373ffffffffffffffffffffffffffffffffffffffff1673ffffffffffffffffffffffffffffffffffffffff1681526020019081526020016000206009018190806001815401808255809150506001900390600052602060002090600502016000909190919091506000820151816000019081610e949190612f6e565b506020820151816001019081610eaa9190612f6e565b506040820151816002019081610ec09190612f6e565b506060820151816003019081610ed69190612f6e565b506080820151816004019081610eec9190612f6e565b505050505050505050565b6060600160008373ffffffffffffffffffffffffffffffffffffffff1673ffffffffffffffffffffffffffffffffffffffff168152602001908152602001600020600801805480602002602001604051908101604052809291908181526020016000905b82821015611007578382906000526020600020018054610f7a90612d91565b80601f0160208091040260200160405190810160405280929190818152602001828054610fa690612d91565b8015610ff35780601f10610fc857610100808354040283529160200191610ff3565b820191906000526020600020905b815481529060010190602001808311610fd657829003601f168201915b505050505081526020019060010190610f5b565b505050509050919050565b6001600281111561102657611025612ae0565b5b6000803373ffffffffffffffffffffffffffffffffffffffff1673ffffffffffffffffffffffffffffffffffffffff168152602001908152602001600020540361135057600260003373ffffffffffffffffffffffffffffffffffffffff1673ffffffffffffffffffffffffffffffffffffffff16815260200190815260200160002060080160009054906101000a900460ff166110f9576040517f08c379a00000000000000000000000000000000000000000000000000000000081526004016110f090612c44565b60405180910390fd5b60028081111561110c5761110b612ae0565b5b6000808473ffffffffffffffffffffffffffffffffffffffff1673ffffffffffffffffffffffffffffffffffffffff168152602001908152602001600020540361131057600260003373ffffffffffffffffffffffffffffffffffffffff1673ffffffffffffffffffffffffffffffffffffffff168152602001908152602001600020600901829080600181540180825580915050600190039060005260206000200160009091909190916101000a81548173ffffffffffffffffffffffffffffffffffffffff021916908373ffffffffffffffffffffffffffffffffffffffff160217905550600160008373ffffffffffffffffffffffffffffffffffffffff1673ffffffffffffffffffffffffffffffffffffffff168152602001908152602001600020600801819080600181540180825580915050600190039060005260206000200160009091909190915090816112679190612f6e565b50600160008373ffffffffffffffffffffffffffffffffffffffff1673ffffffffffffffffffffffffffffffffffffffff168152602001908152602001600020600a01339080600181540180825580915050600190039060005260206000200160009091909190916101000a81548173ffffffffffffffffffffffffffffffffffffffff021916908373ffffffffffffffffffffffffffffffffffffffff16021790555061134b565b6040517f08c379a0000000000000000000000000000000000000000000000000000000008152600401611342906130b2565b60405180910390fd5b6114ec565b60028081111561136357611362612ae0565b5b6000803373ffffffffffffffffffffffffffffffffffffffff1673ffffffffffffffffffffffffffffffffffffffff16815260200190815260200160002054036114b057600160003373ffffffffffffffffffffffffffffffffffffffff1673ffffffffffffffffffffffffffffffffffffffff16815260200190815260200160002060060160009054906101000a900460ff16611436576040517f08c379a000000000000000000000000000000000000000000000000000000000815260040161142d90612bd8565b60405180910390fd5b600160003373ffffffffffffffffffffffffffffffffffffffff1673ffffffffffffffffffffffffffffffffffffffff168152602001908152602001600020600801819080600181540180825580915050600190039060005260206000200160009091909190915090816114aa9190612f6e565b506114eb565b6040517f08c379a00000000000000000000000000000000000000000000000000000000081526004016114e2906130b2565b60405180910390fd5b5b5050565b600033905060001515600160008373ffffffffffffffffffffffffffffffffffffffff1673ffffffffffffffffffffffffffffffffffffffff16815260200190815260200160002060060160009054906101000a900460ff1615151461158b576040517f08c379a000000000000000000000000000000000000000000000000000000000815260040161158290613144565b60405180910390fd5b6000600160008373ffffffffffffffffffffffffffffffffffffffff1673ffffffffffffffffffffffffffffffffffffffff1681526020019081526020016000209050818160000160006101000a81548173ffffffffffffffffffffffffffffffffffffffff021916908373ffffffffffffffffffffffffffffffffffffffff1602179055508681600101819055508581600201908161162b9190612f6e565b508481600301908161163d9190612f6e565b5083816004018190555060026000808473ffffffffffffffffffffffffffffffffffffffff1673ffffffffffffffffffffffffffffffffffffffff168152602001908152602001600020819055508281600501908161169c9190612f6e565b5060018160060160006101000a81548160ff0219169083151502179055506040518060400160405280600781526020017f53747564656e74000000000000000000000000000000000000000000000000008152508160070190816117009190612f6e565b5050505050505050565b600033905060001515600260008373ffffffffffffffffffffffffffffffffffffffff1673ffffffffffffffffffffffffffffffffffffffff16815260200190815260200160002060080160009054906101000a900460ff161515146117a5576040517f08c379a000000000000000000000000000000000000000000000000000000000815260040161179c906131b0565b60405180910390fd5b6000600260008373ffffffffffffffffffffffffffffffffffffffff1673ffffffffffffffffffffffffffffffffffffffff1681526020019081526020016000209050818160000160006101000a81548173ffffffffffffffffffffffffffffffffffffffff021916908373ffffffffffffffffffffffffffffffffffffffff160217905550868160010181905550858160020190816118459190612f6e565b50848160030190816118579190612f6e565b508381600401819055508281600501819055506040518060400160405280600781526020017f546561636865720000000000000000000000000000000000000000000000000081525081600a0190816118b09190612f6e565b5060018160080160006101000a81548160ff02191690831515021790555060016000808473ffffffffffffffffffffffffffffffffffffffff1673ffffffffffffffffffffffffffffffffffffffff1681526020019081526020016000208190555050505050505050565b611923611eb0565b600260008373ffffffffffffffffffffffffffffffffffffffff1673ffffffffffffffffffffffffffffffffffffffff16815260200190815260200160002060080160009054906101000a900460ff166119b2576040517f08c379a00000000000000000000000000000000000000000000000000000000081526004016119a990612c44565b60405180910390fd5b600260008373ffffffffffffffffffffffffffffffffffffffff1673ffffffffffffffffffffffffffffffffffffffff168152602001908152602001600020604051806101600160405290816000820160009054906101000a900473ffffffffffffffffffffffffffffffffffffffff1673ffffffffffffffffffffffffffffffffffffffff1673ffffffffffffffffffffffffffffffffffffffff16815260200160018201548152602001600282018054611a6d90612d91565b80601f0160208091040260200160405190810160405280929190818152602001828054611a9990612d91565b8015611ae65780601f10611abb57610100808354040283529160200191611ae6565b820191906000526020600020905b815481529060010190602001808311611ac957829003601f168201915b50505050508152602001600382018054611aff90612d91565b80601f0160208091040260200160405190810160405280929190818152602001828054611b2b90612d91565b8015611b785780601f10611b4d57610100808354040283529160200191611b78565b820191906000526020600020905b815481529060010190602001808311611b5b57829003601f168201915b50505050508152602001600482015481526020016005820154815260200160068201805480602002602001604051908101604052809291908181526020018280548015611c1a57602002820191906000526020600020905b8160009054906101000a900473ffffffffffffffffffffffffffffffffffffffff1673ffffffffffffffffffffffffffffffffffffffff1681526020019060010190808311611bd0575b5050505050815260200160078201805480602002602001604051908101604052809291908181526020016000905b82821015611cf4578382906000526020600020018054611c6790612d91565b80601f0160208091040260200160405190810160405280929190818152602001828054611c9390612d91565b8015611ce05780601f10611cb557610100808354040283529160200191611ce0565b820191906000526020600020905b815481529060010190602001808311611cc357829003601f168201915b505050505081526020019060010190611c48565b5050505081526020016008820160009054906101000a900460ff1615151515815260200160098201805480602002602001604051908101604052809291908181526020018280548015611d9c57602002820191906000526020600020905b8160009054906101000a900473ffffffffffffffffffffffffffffffffffffffff1673ffffffffffffffffffffffffffffffffffffffff1681526020019060010190808311611d52575b50505050508152602001600a82018054611db590612d91565b80601f0160208091040260200160405190810160405280929190818152602001828054611de190612d91565b8015611e2e5780601f10611e0357610100808354040283529160200191611e2e565b820191906000526020600020905b815481529060010190602001808311611e1157829003601f168201915b5050505050815250509050919050565b604051806101600160405280600073ffffffffffffffffffffffffffffffffffffffff1681526020016000815260200160608152602001606081526020016000815260200160608152602001600015158152602001606081526020016060815260200160608152602001606081525090565b604051806101600160405280600073ffffffffffffffffffffffffffffffffffffffff1681526020016000815260200160608152602001606081526020016000815260200160008152602001606081526020016060815260200160001515815260200160608152602001606081525090565b6000604051905090565b600080fd5b600080fd5b600073ffffffffffffffffffffffffffffffffffffffff82169050919050565b6000611f6182611f36565b9050919050565b611f7181611f56565b8114611f7c57600080fd5b50565b600081359050611f8e81611f68565b92915050565b600060208284031215611faa57611fa9611f2c565b5b6000611fb884828501611f7f565b91505092915050565b6000819050919050565b611fd481611fc1565b82525050565b6000602082019050611fef6000830184611fcb565b92915050565b611ffe81611f56565b82525050565b61200d81611fc1565b82525050565b600081519050919050565b600082825260208201905092915050565b60005b8381101561204d578082015181840152602081019050612032565b60008484015250505050565b6000601f19601f8301169050919050565b600061207582612013565b61207f818561201e565b935061208f81856020860161202f565b61209881612059565b840191505092915050565b60008115159050919050565b6120b8816120a3565b82525050565b600081519050919050565b600082825260208201905092915050565b6000819050602082019050919050565b60006120f6838361206a565b905092915050565b6000602082019050919050565b6000612116826120be565b61212081856120c9565b935083602082028501612132856120da565b8060005b8581101561216e578484038952815161214f85826120ea565b945061215a836120fe565b925060208a01995050600181019050612136565b50829750879550505050505092915050565b600081519050919050565b600082825260208201905092915050565b6000819050602082019050919050565b600060a08301600083015184820360008601526121c9828261206a565b915050602083015184820360208601526121e3828261206a565b915050604083015184820360408601526121fd828261206a565b91505060608301518482036060860152612217828261206a565b91505060808301518482036080860152612231828261206a565b9150508091505092915050565b600061224a83836121ac565b905092915050565b6000602082019050919050565b600061226a82612180565b612274818561218b565b9350836020820285016122868561219c565b8060005b858110156122c257848403895281516122a3858261223e565b94506122ae83612252565b925060208a0199505060018101905061228a565b50829750879550505050505092915050565b600081519050919050565b600082825260208201905092915050565b6000819050602082019050919050565b600061230c8383611ff5565b60208301905092915050565b6000602082019050919050565b6000612330826122d4565b61233a81856122df565b9350612345836122f0565b8060005b8381101561237657815161235d8882612300565b975061236883612318565b925050600181019050612349565b5085935050505092915050565b60006101608301600083015161239c6000860182611ff5565b5060208301516123af6020860182612004565b50604083015184820360408601526123c7828261206a565b915050606083015184820360608601526123e1828261206a565b91505060808301516123f66080860182612004565b5060a083015184820360a086015261240e828261206a565b91505060c083015161242360c08601826120af565b5060e083015184820360e086015261243b828261206a565b915050610100830151848203610100860152612457828261210b565b915050610120830151848203610120860152612473828261225f565b91505061014083015184820361014086015261248f8282612325565b9150508091505092915050565b600060208201905081810360008301526124b68184612383565b905092915050565b600080fd5b600080fd5b7f4e487b7100000000000000000000000000000000000000000000000000000000600052604160045260246000fd5b61250082612059565b810181811067ffffffffffffffff8211171561251f5761251e6124c8565b5b80604052505050565b6000612532611f22565b905061253e82826124f7565b919050565b600067ffffffffffffffff82111561255e5761255d6124c8565b5b61256782612059565b9050602081019050919050565b82818337600083830152505050565b600061259661259184612543565b612528565b9050828152602081018484840111156125b2576125b16124c3565b5b6125bd848285612574565b509392505050565b600082601f8301126125da576125d96124be565b5b81356125ea848260208601612583565b91505092915050565b600080600080600060a0868803121561260f5761260e611f2c565b5b600086013567ffffffffffffffff81111561262d5761262c611f31565b5b612639888289016125c5565b955050602086013567ffffffffffffffff81111561265a57612659611f31565b5b612666888289016125c5565b945050604086013567ffffffffffffffff81111561268757612686611f31565b5b612693888289016125c5565b935050606086013567ffffffffffffffff8111156126b4576126b3611f31565b5b6126c0888289016125c5565b925050608086013567ffffffffffffffff8111156126e1576126e0611f31565b5b6126ed888289016125c5565b9150509295509295909350565b600082825260208201905092915050565b6000612716826120be565b61272081856126fa565b935083602082028501612732856120da565b8060005b8581101561276e578484038952815161274f85826120ea565b945061275a836120fe565b925060208a01995050600181019050612736565b50829750879550505050505092915050565b6000602082019050818103600083015261279a818461270b565b905092915050565b600080604083850312156127b9576127b8611f2c565b5b60006127c785828601611f7f565b925050602083013567ffffffffffffffff8111156127e8576127e7611f31565b5b6127f4858286016125c5565b9150509250929050565b61280781611fc1565b811461281257600080fd5b50565b600081359050612824816127fe565b92915050565b600080600080600060a0868803121561284657612845611f2c565b5b600061285488828901612815565b955050602086013567ffffffffffffffff81111561287557612874611f31565b5b612881888289016125c5565b945050604086013567ffffffffffffffff8111156128a2576128a1611f31565b5b6128ae888289016125c5565b93505060606128bf88828901612815565b925050608086013567ffffffffffffffff8111156128e0576128df611f31565b5b6128ec888289016125c5565b9150509295509295909350565b600080600080600060a0868803121561291557612914611f2c565b5b600061292388828901612815565b955050602086013567ffffffffffffffff81111561294457612943611f31565b5b612950888289016125c5565b945050604086013567ffffffffffffffff81111561297157612970611f31565b5b61297d888289016125c5565b935050606061298e88828901612815565b925050608061299f88828901612815565b9150509295509295909350565b6000610160830160008301516129c56000860182611ff5565b5060208301516129d86020860182612004565b50604083015184820360408601526129f0828261206a565b91505060608301518482036060860152612a0a828261206a565b9150506080830151612a1f6080860182612004565b5060a0830151612a3260a0860182612004565b5060c083015184820360c0860152612a4a8282612325565b91505060e083015184820360e0860152612a64828261210b565b915050610100830151612a7b6101008601826120af565b50610120830151848203610120860152612a958282612325565b915050610140830151848203610140860152612ab1828261206a565b9150508091505092915050565b60006020820190508181036000830152612ad881846129ac565b905092915050565b7f4e487b7100000000000000000000000000000000000000000000000000000000600052602160045260246000fd5b600082825260208201905092915050565b7f4e6f206163636f756e7400000000000000000000000000000000000000000000600082015250565b6000612b56600a83612b0f565b9150612b6182612b20565b602082019050919050565b60006020820190508181036000830152612b8581612b49565b9050919050565b7f53747564656e7420646f65736e27742065786973740000000000000000000000600082015250565b6000612bc2601583612b0f565b9150612bcd82612b8c565b602082019050919050565b60006020820190508181036000830152612bf181612bb5565b9050919050565b7f5465616368657220646f65736e27742065786973740000000000000000000000600082015250565b6000612c2e601583612b0f565b9150612c3982612bf8565b602082019050919050565b60006020820190508181036000830152612c5d81612c21565b9050919050565b7f53747564656e742063616e207472616e73666572206461746120776974686f7560008201527f7420706174686f6c6f6769737473200000000000000000000000000000000000602082015250565b6000612cc0602f83612b0f565b9150612ccb82612c64565b604082019050919050565b60006020820190508181036000830152612cef81612cb3565b9050919050565b7f53747564656e7420646f6573206e6f7420657869737400000000000000000000600082015250565b6000612d2c601683612b0f565b9150612d3782612cf6565b602082019050919050565b60006020820190508181036000830152612d5b81612d1f565b9050919050565b7f4e487b7100000000000000000000000000000000000000000000000000000000600052602260045260246000fd5b60006002820490506001821680612da957607f821691505b602082108103612dbc57612dbb612d62565b5b50919050565b60008190508160005260206000209050919050565b60006020601f8301049050919050565b600082821b905092915050565b600060088302612e247fffffffffffffffffffffffffffffffffffffffffffffffffffffffffffffffff82612de7565b612e2e8683612de7565b95508019841693508086168417925050509392505050565b6000819050919050565b6000612e6b612e66612e6184611fc1565b612e46565b611fc1565b9050919050565b6000819050919050565b612e8583612e50565b612e99612e9182612e72565b848454612df4565b825550505050565b600090565b612eae612ea1565b612eb9818484612e7c565b505050565b5b81811015612edd57612ed2600082612ea6565b600181019050612ebf565b5050565b601f821115612f2257612ef381612dc2565b612efc84612dd7565b81016020851015612f0b578190505b612f1f612f1785612dd7565b830182612ebe565b50505b505050565b600082821c905092915050565b6000612f4560001984600802612f27565b1980831691505092915050565b6000612f5e8383612f34565b9150826002028217905092915050565b612f7782612013565b67ffffffffffffffff811115612f9057612f8f6124c8565b5b612f9a8254612d91565b612fa5828285612ee1565b600060209050601f831160018114612fd85760008415612fc6578287015190505b612fd08582612f52565b865550613038565b601f198416612fe686612dc2565b60005b8281101561300e57848901518255600182019150602085019450602081019050612fe9565b8683101561302b5784890151613027601f891682612f34565b8355505b6001600288020188555050505b505050505050565b7f596f7520646f6e277420616464507265736372697074696f6e20696e2074686960008201527f732020656e746974792000000000000000000000000000000000000000000000602082015250565b600061309c602a83612b0f565b91506130a782613040565b604082019050919050565b600060208201905081810360008301526130cb8161308f565b9050919050565b7f596f75206861766520616c7265616479206372656174656420796f757220707260008201527f6f66696c65000000000000000000000000000000000000000000000000000000602082015250565b600061312e602583612b0f565b9150613139826130d2565b604082019050919050565b6000602082019050818103600083015261315d81613121565b9050919050565b7f596f7520616c72656164792063726561746520796f75722070726f66696c6500600082015250565b600061319a601f83612b0f565b91506131a582613164565b602082019050919050565b600060208201905081810360008301526131c98161318d565b905091905056fea26469706673582212204496d101a7e79b108156465ad5c5d65652553c0a9b98cf2aefdb01fc9aa76a0c64736f6c63430008110033",
  "linkReferences": {},
  "deployedLinkReferences": {}
}