{
  "_format": "hh-sol-artifact-1",
  "contractName": "MedicalData",
  "sourceName": "contracts/patientDataManagement.sol",
  "abi": [
    {
      "inputs": [
        {
          "internalType": "address",
          "name": "useraddress",
          "type": "address"
        }
      ],
      "name": "ConnectedAccountType",
      "outputs": [
        {
          "internalType": "uint256",
          "name": "",
          "type": "uint256"
        }
      ],
      "stateMutability": "view",
      "type": "function"
    },
    {
      "inputs": [
        {
          "internalType": "address",
          "name": "",
          "type": "address"
        }
      ],
      "name": "accounts",
      "outputs": [
        {
          "internalType": "uint256",
          "name": "",
          "type": "uint256"
        }
      ],
      "stateMutability": "view",
      "type": "function"
    },
    {
      "inputs": [
        {
          "internalType": "address",
          "name": "_user",
          "type": "address"
        },
        {
          "internalType": "string",
          "name": "url",
          "type": "string"
        }
      ],
      "name": "addPrescription",
      "outputs": [],
      "stateMutability": "nonpayable",
      "type": "function"
    },
    {
      "inputs": [
        {
          "internalType": "string",
          "name": "medichine",
          "type": "string"
        }
      ],
      "name": "addTopMedichine",
      "outputs": [],
      "stateMutability": "nonpayable",
      "type": "function"
    },
    {
      "inputs": [
        {
          "internalType": "address",
          "name": "_doctorAddress",
          "type": "address"
        }
      ],
      "name": "getDoctor",
      "outputs": [
        {
          "components": [
            {
              "internalType": "address",
              "name": "DoctorAddress",
              "type": "address"
            },
            {
              "internalType": "uint256",
              "name": "doctorID",
              "type": "uint256"
            },
            {
              "internalType": "string",
              "name": "name",
              "type": "string"
            },
            {
              "internalType": "string",
              "name": "specialty",
              "type": "string"
            },
            {
              "internalType": "uint256",
              "name": "consultationFee",
              "type": "uint256"
            },
            {
              "internalType": "uint256",
              "name": "BMDCNumber",
              "type": "uint256"
            },
            {
              "internalType": "uint256",
              "name": "yearOfExperience",
              "type": "uint256"
            },
            {
              "internalType": "address[]",
              "name": "PatientToDoctor",
              "type": "address[]"
            },
            {
              "internalType": "string[]",
              "name": "patientTest",
              "type": "string[]"
            },
            {
              "internalType": "bool",
              "name": "isAdded",
              "type": "bool"
            },
            {
              "internalType": "address[]",
              "name": "TreatedPatient",
              "type": "address[]"
            },
            {
              "internalType": "string",
              "name": "userType",
              "type": "string"
            }
          ],
          "internalType": "struct MedicalData.Doctor",
          "name": "",
          "type": "tuple"
        }
      ],
      "stateMutability": "view",
      "type": "function"
    },
    {
      "inputs": [
        {
          "internalType": "address",
          "name": "_labAddress",
          "type": "address"
        }
      ],
      "name": "getMedicalResearchLab",
      "outputs": [
        {
          "components": [
            {
              "internalType": "address",
              "name": "labAddress",
              "type": "address"
            },
            {
              "internalType": "uint256",
              "name": "labID",
              "type": "uint256"
            },
            {
              "internalType": "string",
              "name": "name",
              "type": "string"
            },
            {
              "internalType": "uint256",
              "name": "licenseID",
              "type": "uint256"
            },
            {
              "internalType": "string",
              "name": "researchArea",
              "type": "string"
            },
            {
              "internalType": "uint256",
              "name": "labRating",
              "type": "uint256"
            },
            {
              "internalType": "bool",
              "name": "isAdded",
              "type": "bool"
            },
            {
              "internalType": "address[]",
              "name": "PatientToMedRcLab",
              "type": "address[]"
            },
            {
              "internalType": "string[]",
              "name": "PatientLabReport",
              "type": "string[]"
            },
            {
              "internalType": "string",
              "name": "userType",
              "type": "string"
            }
          ],
          "internalType": "struct MedicalData.MedicalResearchLab",
          "name": "",
          "type": "tuple"
        }
      ],
      "stateMutability": "view",
      "type": "function"
    },
    {
      "inputs": [
        {
          "internalType": "address",
          "name": "_pathologistAddress",
          "type": "address"
        }
      ],
      "name": "getPathologist",
      "outputs": [
        {
          "components": [
            {
              "internalType": "address",
              "name": "pathologistAddress",
              "type": "address"
            },
            {
              "internalType": "uint256",
              "name": "pathologistID",
              "type": "uint256"
            },
            {
              "internalType": "string",
              "name": "name",
              "type": "string"
            },
            {
              "internalType": "uint256",
              "name": "licenseNumber",
              "type": "uint256"
            },
            {
              "internalType": "string",
              "name": "specializationArea",
              "type": "string"
            },
            {
              "internalType": "uint256",
              "name": "totalExperience",
              "type": "uint256"
            },
            {
              "internalType": "bool",
              "name": "isAdded",
              "type": "bool"
            },
            {
              "internalType": "address[]",
              "name": "PatientToPathologiest",
              "type": "address[]"
            },
            {
              "internalType": "string[]",
              "name": "pathologistTest",
              "type": "string[]"
            },
            {
              "internalType": "string",
              "name": "userType",
              "type": "string"
            }
          ],
          "internalType": "struct MedicalData.Pathologist",
          "name": "",
          "type": "tuple"
        }
      ],
      "stateMutability": "view",
      "type": "function"
    },
    {
      "inputs": [
        {
          "internalType": "address",
          "name": "_patientAddress",
          "type": "address"
        }
      ],
      "name": "getPatient",
      "outputs": [
        {
          "components": [
            {
              "internalType": "address",
              "name": "patientAddress",
              "type": "address"
            },
            {
              "internalType": "uint256",
              "name": "patientID",
              "type": "uint256"
            },
            {
              "internalType": "string",
              "name": "name",
              "type": "string"
            },
            {
              "internalType": "string",
              "name": "gender",
              "type": "string"
            },
            {
              "internalType": "uint256",
              "name": "age",
              "type": "uint256"
            },
            {
              "internalType": "string",
              "name": "location",
              "type": "string"
            },
            {
              "internalType": "bool",
              "name": "isAdded",
              "type": "bool"
            },
            {
              "internalType": "string",
              "name": "userType",
              "type": "string"
            },
            {
              "internalType": "string[]",
              "name": "imgUrl",
              "type": "string[]"
            },
            {
              "components": [
                {
                  "internalType": "uint256",
                  "name": "height",
                  "type": "uint256"
                },
                {
                  "internalType": "string",
                  "name": "Blood",
                  "type": "string"
                },
                {
                  "internalType": "string",
                  "name": "PreviousDiseases",
                  "type": "string"
                },
                {
                  "internalType": "string",
                  "name": "Medicinedrugs",
                  "type": "string"
                },
                {
                  "internalType": "string",
                  "name": "BadHabits",
                  "type": "string"
                },
                {
                  "internalType": "string",
                  "name": "ChronicDiseases",
                  "type": "string"
                },
                {
                  "internalType": "string",
                  "name": "HealthAllergies",
                  "type": "string"
                },
                {
                  "internalType": "string",
                  "name": "BirthDefects",
                  "type": "string"
                }
              ],
              "internalType": "struct MedicalData.PatientPersonalData",
              "name": "patientPersonalData",
              "type": "tuple"
            },
            {
              "internalType": "address[]",
              "name": "personalDoctor",
              "type": "address[]"
            }
          ],
          "internalType": "struct MedicalData.Patient",
          "name": "",
          "type": "tuple"
        }
      ],
      "stateMutability": "view",
      "type": "function"
    },
    {
      "inputs": [
        {
          "internalType": "address",
          "name": "_pharmacyCompanyAddress",
          "type": "address"
        }
      ],
      "name": "getPharmacyCompany",
      "outputs": [
        {
          "components": [
            {
              "internalType": "address",
              "name": "pharmacyCompanyAddress",
              "type": "address"
            },
            {
              "internalType": "uint256",
              "name": "companyID",
              "type": "uint256"
            },
            {
              "internalType": "string",
              "name": "name",
              "type": "string"
            },
            {
              "internalType": "uint256",
              "name": "licenseID",
              "type": "uint256"
            },
            {
              "internalType": "string",
              "name": "productInformation",
              "type": "string"
            },
            {
              "internalType": "uint256",
              "name": "pharmacyRating",
              "type": "uint256"
            },
            {
              "internalType": "bool",
              "name": "isAdded",
              "type": "bool"
            },
            {
              "internalType": "address[]",
              "name": "PatientToPharmacy",
              "type": "address[]"
            },
            {
              "internalType": "string",
              "name": "userType",
              "type": "string"
            },
            {
              "internalType": "string[]",
              "name": "TopMedichine",
              "type": "string[]"
            }
          ],
          "internalType": "struct MedicalData.PharmacyCompany",
          "name": "",
          "type": "tuple"
        }
      ],
      "stateMutability": "view",
      "type": "function"
    },
    {
      "inputs": [
        {
          "internalType": "uint256",
          "name": "doctorID",
          "type": "uint256"
        },
        {
          "internalType": "string",
          "name": "name",
          "type": "string"
        },
        {
          "internalType": "string",
          "name": "specialty",
          "type": "string"
        },
        {
          "internalType": "uint256",
          "name": "consultationFee",
          "type": "uint256"
        },
        {
          "internalType": "uint256",
          "name": "BMDCNumber",
          "type": "uint256"
        },
        {
          "internalType": "uint256",
          "name": "yearOfExperience",
          "type": "uint256"
        }
      ],
      "name": "setDoctor",
      "outputs": [],
      "stateMutability": "nonpayable",
      "type": "function"
    },
    {
      "inputs": [
        {
          "internalType": "uint256",
          "name": "labID",
          "type": "uint256"
        },
        {
          "internalType": "string",
          "name": "name",
          "type": "string"
        },
        {
          "internalType": "uint256",
          "name": "licenseID",
          "type": "uint256"
        },
        {
          "internalType": "string",
          "name": "researchArea",
          "type": "string"
        },
        {
          "internalType": "uint256",
          "name": "labRating",
          "type": "uint256"
        }
      ],
      "name": "setMedicalResearchLab",
      "outputs": [],
      "stateMutability": "nonpayable",
      "type": "function"
    },
    {
      "inputs": [
        {
          "internalType": "uint256",
          "name": "pathologistID",
          "type": "uint256"
        },
        {
          "internalType": "string",
          "name": "name",
          "type": "string"
        },
        {
          "internalType": "uint256",
          "name": "licenseNumber",
          "type": "uint256"
        },
        {
          "internalType": "string",
          "name": "specializationArea",
          "type": "string"
        },
        {
          "internalType": "uint256",
          "name": "totalExperience",
          "type": "uint256"
        }
      ],
      "name": "setPathologist",
      "outputs": [],
      "stateMutability": "nonpayable",
      "type": "function"
    },
    {
      "inputs": [
        {
          "internalType": "uint256",
          "name": "patientID",
          "type": "uint256"
        },
        {
          "internalType": "string",
          "name": "name",
          "type": "string"
        },
        {
          "internalType": "string",
          "name": "gender",
          "type": "string"
        },
        {
          "internalType": "uint256",
          "name": "age",
          "type": "uint256"
        },
        {
          "internalType": "string",
          "name": "location",
          "type": "string"
        }
      ],
      "name": "setPatient",
      "outputs": [],
      "stateMutability": "nonpayable",
      "type": "function"
    },
    {
      "inputs": [
        {
          "internalType": "uint256",
          "name": "height",
          "type": "uint256"
        },
        {
          "internalType": "string",
          "name": "blood",
          "type": "string"
        },
        {
          "internalType": "string",
          "name": "previousDiseases",
          "type": "string"
        },
        {
          "internalType": "string",
          "name": "medicineDrugs",
          "type": "string"
        },
        {
          "internalType": "string",
          "name": "badHabits",
          "type": "string"
        },
        {
          "internalType": "string",
          "name": "chronicDiseases",
          "type": "string"
        },
        {
          "internalType": "string",
          "name": "healthAllergies",
          "type": "string"
        },
        {
          "internalType": "string",
          "name": "birthDefects",
          "type": "string"
        }
      ],
      "name": "setPatientPersonalData",
      "outputs": [],
      "stateMutability": "nonpayable",
      "type": "function"
    },
    {
      "inputs": [
        {
          "internalType": "uint256",
          "name": "companyID",
          "type": "uint256"
        },
        {
          "internalType": "string",
          "name": "name",
          "type": "string"
        },
        {
          "internalType": "uint256",
          "name": "licenseID",
          "type": "uint256"
        },
        {
          "internalType": "string",
          "name": "productInformation",
          "type": "string"
        },
        {
          "internalType": "uint256",
          "name": "pharmacyRating",
          "type": "uint256"
        }
      ],
      "name": "setPharmacyCompany",
      "outputs": [],
      "stateMutability": "nonpayable",
      "type": "function"
    },
    {
      "inputs": [
        {
          "internalType": "address",
          "name": "patientAddress",
          "type": "address"
        }
      ],
      "name": "showSharedPrescription",
      "outputs": [
        {
          "internalType": "string[]",
          "name": "imageUrl",
          "type": "string[]"
        }
      ],
      "stateMutability": "view",
      "type": "function"
    },
    {
      "inputs": [
        {
          "internalType": "address",
          "name": "useraddress",
          "type": "address"
        }
      ],
      "name": "transferDataByPatient",
      "outputs": [],
      "stateMutability": "nonpayable",
      "type": "function"
    }
  ],
  "bytecode": "0x608060405234801561001057600080fd5b506158e480620000216000396000f3fe608060405234801561001057600080fd5b506004361061010b5760003560e01c8063887f6f8d116100a2578063b5368e2011610071578063b5368e20146102d8578063d10b07d814610308578063d23fb52c14610324578063ea8c9e0414610340578063f4bffd5a146103705761010b565b8063887f6f8d146102405780639059229b14610270578063a3e12bc0146102a0578063a9d0b46a146102bc5761010b565b80635e5c06e2116100de5780635e5c06e2146101bc5780636757711b146101ec5780636bc071a5146102085780637ddd3f05146102245761010b565b8063100d1a7f1461011057806316ecfa841461012c5780632a1ebd011461015c5780632f04e0641461018c575b600080fd5b61012a60048036038101906101259190614058565b61038c565b005b61014660048036038101906101419190614230565b610479565b604051610153919061457c565b60405180910390f35b61017660048036038101906101719190614230565b61090e565b60405161018391906145ad565b60405180910390f35b6101a660048036038101906101a19190614230565b610a40565b6040516101b391906146ef565b60405180910390f35b6101d660048036038101906101d19190614230565b610f6d565b6040516101e391906145ad565b60405180910390f35b61020660048036038101906102019190614711565b610f85565b005b610222600480360381019061021d91906147c4565b611196565b005b61023e60048036038101906102399190614711565b61120e565b005b61025a60048036038101906102559190614230565b61141f565b6040516102679190614893565b60405180910390f35b61028a60048036038101906102859190614230565b61153a565b60405161029791906149ab565b60405180910390f35b6102ba60048036038101906102b591906149cd565b6119cf565b005b6102d660048036038101906102d19190614230565b612244565b005b6102f260048036038101906102ed9190614230565b61283c565b6040516102ff9190614c1c565b60405180910390f35b610322600480360381019061031d9190614711565b613176565b005b61033e60048036038101906103399190614c3e565b613387565b005b61035a60048036038101906103559190614230565b6135a1565b6040516103679190614e03565b60405180910390f35b61038a60048036038101906103859190614e25565b613a36565b005b6000600160003373ffffffffffffffffffffffffffffffffffffffff1673ffffffffffffffffffffffffffffffffffffffff1681526020019081526020016000209050888160090160000181905550878160090160010190816103ef91906150f6565b508681600901600201908161040491906150f6565b508581600901600301908161041991906150f6565b508481600901600401908161042e91906150f6565b508381600901600501908161044391906150f6565b508281600901600601908161045891906150f6565b508181600901600701908161046d91906150f6565b50505050505050505050565b610481613c51565b600360008373ffffffffffffffffffffffffffffffffffffffff1673ffffffffffffffffffffffffffffffffffffffff16815260200190815260200160002060060160009054906101000a900460ff16610510576040517f08c379a000000000000000000000000000000000000000000000000000000000815260040161050790615225565b60405180910390fd5b600360008373ffffffffffffffffffffffffffffffffffffffff1673ffffffffffffffffffffffffffffffffffffffff168152602001908152602001600020604051806101400160405290816000820160009054906101000a900473ffffffffffffffffffffffffffffffffffffffff1673ffffffffffffffffffffffffffffffffffffffff1673ffffffffffffffffffffffffffffffffffffffff168152602001600182015481526020016002820180546105cb90614f19565b80601f01602080910402602001604051908101604052809291908181526020018280546105f790614f19565b80156106445780601f1061061957610100808354040283529160200191610644565b820191906000526020600020905b81548152906001019060200180831161062757829003601f168201915b505050505081526020016003820154815260200160048201805461066790614f19565b80601f016020809104026020016040519081016040528092919081815260200182805461069390614f19565b80156106e05780601f106106b5576101008083540402835291602001916106e0565b820191906000526020600020905b8154815290600101906020018083116106c357829003601f168201915b50505050508152602001600582015481526020016006820160009054906101000a900460ff161515151581526020016007820180548060200260200160405190810160405280929190818152602001828054801561079357602002820191906000526020600020905b8160009054906101000a900473ffffffffffffffffffffffffffffffffffffffff1673ffffffffffffffffffffffffffffffffffffffff1681526020019060010190808311610749575b5050505050815260200160088201805480602002602001604051908101604052809291908181526020016000905b8282101561086d5783829060005260206000200180546107e090614f19565b80601f016020809104026020016040519081016040528092919081815260200182805461080c90614f19565b80156108595780601f1061082e57610100808354040283529160200191610859565b820191906000526020600020905b81548152906001019060200180831161083c57829003601f168201915b5050505050815260200190600101906107c1565b50505050815260200160098201805461088590614f19565b80601f01602080910402602001604051908101604052809291908181526020018280546108b190614f19565b80156108fe5780601f106108d3576101008083540402835291602001916108fe565b820191906000526020600020905b8154815290600101906020018083116108e157829003601f168201915b5050505050815250509050919050565b6000806000808473ffffffffffffffffffffffffffffffffffffffff1673ffffffffffffffffffffffffffffffffffffffff1681526020019081526020016000205490506001600581111561096657610965615245565b5b81036109755780915050610a3b565b60058081111561098857610987615245565b5b81036109975780915050610a3b565b600260058111156109ab576109aa615245565b5b81036109ba5780915050610a3b565b600360058111156109ce576109cd615245565b5b81036109dd5780915050610a3b565b600460058111156109f1576109f0615245565b5b8103610a005780915050610a3b565b6040517f08c379a0000000000000000000000000000000000000000000000000000000008152600401610a32906152c0565b60405180910390fd5b919050565b610a48613cbc565b600260008373ffffffffffffffffffffffffffffffffffffffff1673ffffffffffffffffffffffffffffffffffffffff16815260200190815260200160002060090160009054906101000a900460ff16610ad7576040517f08c379a0000000000000000000000000000000000000000000000000000000008152600401610ace9061532c565b60405180910390fd5b600260008373ffffffffffffffffffffffffffffffffffffffff1673ffffffffffffffffffffffffffffffffffffffff168152602001908152602001600020604051806101800160405290816000820160009054906101000a900473ffffffffffffffffffffffffffffffffffffffff1673ffffffffffffffffffffffffffffffffffffffff1673ffffffffffffffffffffffffffffffffffffffff16815260200160018201548152602001600282018054610b9290614f19565b80601f0160208091040260200160405190810160405280929190818152602001828054610bbe90614f19565b8015610c0b5780601f10610be057610100808354040283529160200191610c0b565b820191906000526020600020905b815481529060010190602001808311610bee57829003601f168201915b50505050508152602001600382018054610c2490614f19565b80601f0160208091040260200160405190810160405280929190818152602001828054610c5090614f19565b8015610c9d5780601f10610c7257610100808354040283529160200191610c9d565b820191906000526020600020905b815481529060010190602001808311610c8057829003601f168201915b5050505050815260200160048201548152602001600582015481526020016006820154815260200160078201805480602002602001604051908101604052809291908181526020018280548015610d4957602002820191906000526020600020905b8160009054906101000a900473ffffffffffffffffffffffffffffffffffffffff1673ffffffffffffffffffffffffffffffffffffffff1681526020019060010190808311610cff575b5050505050815260200160088201805480602002602001604051908101604052809291908181526020016000905b82821015610e23578382906000526020600020018054610d9690614f19565b80601f0160208091040260200160405190810160405280929190818152602001828054610dc290614f19565b8015610e0f5780601f10610de457610100808354040283529160200191610e0f565b820191906000526020600020905b815481529060010190602001808311610df257829003601f168201915b505050505081526020019060010190610d77565b5050505081526020016009820160009054906101000a900460ff16151515158152602001600a8201805480602002602001604051908101604052809291908181526020018280548015610ecb57602002820191906000526020600020905b8160009054906101000a900473ffffffffffffffffffffffffffffffffffffffff1673ffffffffffffffffffffffffffffffffffffffff1681526020019060010190808311610e81575b50505050508152602001600b82018054610ee490614f19565b80601f0160208091040260200160405190810160405280929190818152602001828054610f1090614f19565b8015610f5d5780601f10610f3257610100808354040283529160200191610f5d565b820191906000526020600020905b815481529060010190602001808311610f4057829003601f168201915b5050505050815250509050919050565b60006020528060005260406000206000915090505481565b600033905060001515600360008373ffffffffffffffffffffffffffffffffffffffff1673ffffffffffffffffffffffffffffffffffffffff16815260200190815260200160002060060160009054906101000a900460ff16151514611020576040517f08c379a000000000000000000000000000000000000000000000000000000000815260040161101790615398565b60405180910390fd5b6000600360008373ffffffffffffffffffffffffffffffffffffffff1673ffffffffffffffffffffffffffffffffffffffff1681526020019081526020016000209050818160000160006101000a81548173ffffffffffffffffffffffffffffffffffffffff021916908373ffffffffffffffffffffffffffffffffffffffff160217905550868160010181905550858160020190816110c091906150f6565b50848160030181905550838160040190816110db91906150f6565b5082816005018190555060026000808473ffffffffffffffffffffffffffffffffffffffff1673ffffffffffffffffffffffffffffffffffffffff1681526020019081526020016000208190555060018160060160006101000a81548160ff0219169083151502179055506040518060400160405280600b81526020017f506174686f6c6f6769737400000000000000000000000000000000000000000081525081600901908161118c91906150f6565b5050505050505050565b600560003373ffffffffffffffffffffffffffffffffffffffff1673ffffffffffffffffffffffffffffffffffffffff1681526020019081526020016000206009018190806001815401808255809150506001900390600052602060002001600090919091909150908161120a91906150f6565b5050565b600033905060001515600560008373ffffffffffffffffffffffffffffffffffffffff1673ffffffffffffffffffffffffffffffffffffffff16815260200190815260200160002060060160009054906101000a900460ff161515146112a9576040517f08c379a00000000000000000000000000000000000000000000000000000000081526004016112a090615398565b60405180910390fd5b6000600560008373ffffffffffffffffffffffffffffffffffffffff1673ffffffffffffffffffffffffffffffffffffffff1681526020019081526020016000209050818160000160006101000a81548173ffffffffffffffffffffffffffffffffffffffff021916908373ffffffffffffffffffffffffffffffffffffffff1602179055508681600101819055508581600201908161134991906150f6565b508481600301819055508381600401908161136491906150f6565b5082816005018190555060018160060160006101000a81548160ff02191690831515021790555060046000808473ffffffffffffffffffffffffffffffffffffffff1673ffffffffffffffffffffffffffffffffffffffff168152602001908152602001600020819055506040518060400160405280601081526020017f506861726d61637920436f6d70616e790000000000000000000000000000000081525081600801908161141591906150f6565b5050505050505050565b6060600160008373ffffffffffffffffffffffffffffffffffffffff1673ffffffffffffffffffffffffffffffffffffffff168152602001908152602001600020600801805480602002602001604051908101604052809291908181526020016000905b8282101561152f5783829060005260206000200180546114a290614f19565b80601f01602080910402602001604051908101604052809291908181526020018280546114ce90614f19565b801561151b5780601f106114f05761010080835404028352916020019161151b565b820191906000526020600020905b8154815290600101906020018083116114fe57829003601f168201915b505050505081526020019060010190611483565b505050509050919050565b611542613d35565b600560008373ffffffffffffffffffffffffffffffffffffffff1673ffffffffffffffffffffffffffffffffffffffff16815260200190815260200160002060060160009054906101000a900460ff166115d1576040517f08c379a00000000000000000000000000000000000000000000000000000000081526004016115c890615404565b60405180910390fd5b600560008373ffffffffffffffffffffffffffffffffffffffff1673ffffffffffffffffffffffffffffffffffffffff168152602001908152602001600020604051806101400160405290816000820160009054906101000a900473ffffffffffffffffffffffffffffffffffffffff1673ffffffffffffffffffffffffffffffffffffffff1673ffffffffffffffffffffffffffffffffffffffff1681526020016001820154815260200160028201805461168c90614f19565b80601f01602080910402602001604051908101604052809291908181526020018280546116b890614f19565b80156117055780601f106116da57610100808354040283529160200191611705565b820191906000526020600020905b8154815290600101906020018083116116e857829003601f168201915b505050505081526020016003820154815260200160048201805461172890614f19565b80601f016020809104026020016040519081016040528092919081815260200182805461175490614f19565b80156117a15780601f10611776576101008083540402835291602001916117a1565b820191906000526020600020905b81548152906001019060200180831161178457829003601f168201915b50505050508152602001600582015481526020016006820160009054906101000a900460ff161515151581526020016007820180548060200260200160405190810160405280929190818152602001828054801561185457602002820191906000526020600020905b8160009054906101000a900473ffffffffffffffffffffffffffffffffffffffff1673ffffffffffffffffffffffffffffffffffffffff168152602001906001019080831161180a575b5050505050815260200160088201805461186d90614f19565b80601f016020809104026020016040519081016040528092919081815260200182805461189990614f19565b80156118e65780601f106118bb576101008083540402835291602001916118e6565b820191906000526020600020905b8154815290600101906020018083116118c957829003601f168201915b5050505050815260200160098201805480602002602001604051908101604052809291908181526020016000905b828210156119c057838290600052602060002001805461193390614f19565b80601f016020809104026020016040519081016040528092919081815260200182805461195f90614f19565b80156119ac5780601f10611981576101008083540402835291602001916119ac565b820191906000526020600020905b81548152906001019060200180831161198f57829003601f168201915b505050505081526020019060010190611914565b50505050815250509050919050565b600160058111156119e3576119e2615245565b5b6000803373ffffffffffffffffffffffffffffffffffffffff1673ffffffffffffffffffffffffffffffffffffffff1681526020019081526020016000205403611de057600260003373ffffffffffffffffffffffffffffffffffffffff1673ffffffffffffffffffffffffffffffffffffffff16815260200190815260200160002060090160009054906101000a900460ff16611ab6576040517f08c379a0000000000000000000000000000000000000000000000000000000008152600401611aad9061532c565b60405180910390fd5b60026005811115611aca57611ac9615245565b5b6000808473ffffffffffffffffffffffffffffffffffffffff1673ffffffffffffffffffffffffffffffffffffffff1681526020019081526020016000205403611b8857600360008373ffffffffffffffffffffffffffffffffffffffff1673ffffffffffffffffffffffffffffffffffffffff16815260200190815260200160002060080181908060018154018082558091505060019003906000526020600020016000909190919091509081611b8291906150f6565b50611ddb565b600580811115611b9b57611b9a615245565b5b6000808473ffffffffffffffffffffffffffffffffffffffff1673ffffffffffffffffffffffffffffffffffffffff1681526020019081526020016000205403611d9f57600260003373ffffffffffffffffffffffffffffffffffffffff1673ffffffffffffffffffffffffffffffffffffffff168152602001908152602001600020600a01829080600181540180825580915050600190039060005260206000200160009091909190916101000a81548173ffffffffffffffffffffffffffffffffffffffff021916908373ffffffffffffffffffffffffffffffffffffffff160217905550600160008373ffffffffffffffffffffffffffffffffffffffff1673ffffffffffffffffffffffffffffffffffffffff16815260200190815260200160002060080181908060018154018082558091505060019003906000526020600020016000909190919091509081611cf691906150f6565b50600160008373ffffffffffffffffffffffffffffffffffffffff1673ffffffffffffffffffffffffffffffffffffffff168152602001908152602001600020601101339080600181540180825580915050600190039060005260206000200160009091909190916101000a81548173ffffffffffffffffffffffffffffffffffffffff021916908373ffffffffffffffffffffffffffffffffffffffff160217905550611dda565b6040517f08c379a0000000000000000000000000000000000000000000000000000000008152600401611dd190615496565b60405180910390fd5b5b612240565b600580811115611df357611df2615245565b5b6000803373ffffffffffffffffffffffffffffffffffffffff1673ffffffffffffffffffffffffffffffffffffffff1681526020019081526020016000205403611f4057600160003373ffffffffffffffffffffffffffffffffffffffff1673ffffffffffffffffffffffffffffffffffffffff16815260200190815260200160002060060160009054906101000a900460ff16611ec6576040517f08c379a0000000000000000000000000000000000000000000000000000000008152600401611ebd90615502565b60405180910390fd5b600160003373ffffffffffffffffffffffffffffffffffffffff1673ffffffffffffffffffffffffffffffffffffffff16815260200190815260200160002060080181908060018154018082558091505060019003906000526020600020016000909190919091509081611f3a91906150f6565b5061223f565b60026005811115611f5457611f53615245565b5b6000803373ffffffffffffffffffffffffffffffffffffffff1673ffffffffffffffffffffffffffffffffffffffff16815260200190815260200160002054036120a157600360003373ffffffffffffffffffffffffffffffffffffffff1673ffffffffffffffffffffffffffffffffffffffff16815260200190815260200160002060060160009054906101000a900460ff16612027576040517f08c379a000000000000000000000000000000000000000000000000000000000815260040161201e9061556e565b60405180910390fd5b600260008373ffffffffffffffffffffffffffffffffffffffff1673ffffffffffffffffffffffffffffffffffffffff1681526020019081526020016000206008018190806001815401808255809150506001900390600052602060002001600090919091909150908161209b91906150f6565b5061223e565b600360058111156120b5576120b4615245565b5b6000803373ffffffffffffffffffffffffffffffffffffffff1673ffffffffffffffffffffffffffffffffffffffff168152602001908152602001600020540361220257600460003373ffffffffffffffffffffffffffffffffffffffff1673ffffffffffffffffffffffffffffffffffffffff16815260200190815260200160002060060160009054906101000a900460ff16612188576040517f08c379a000000000000000000000000000000000000000000000000000000000815260040161217f90615600565b60405180910390fd5b600460003373ffffffffffffffffffffffffffffffffffffffff1673ffffffffffffffffffffffffffffffffffffffff168152602001908152602001600020600801819080600181540180825580915050600190039060005260206000200160009091909190915090816121fc91906150f6565b5061223d565b6040517f08c379a000000000000000000000000000000000000000000000000000000000815260040161223490615496565b60405180910390fd5b5b5b5b5050565b60008060008373ffffffffffffffffffffffffffffffffffffffff1673ffffffffffffffffffffffffffffffffffffffff16815260200190815260200160002054905060058081111561229a57612299615245565b5b60050361283857600160003373ffffffffffffffffffffffffffffffffffffffff1673ffffffffffffffffffffffffffffffffffffffff16815260200190815260200160002060060160009054906101000a900460ff16612330576040517f08c379a000000000000000000000000000000000000000000000000000000000815260040161232790615502565b60405180910390fd5b6001600581111561234457612343615245565b5b8114801561236457506005808111156123605761235f615245565b5b6005145b15612496576000600260008473ffffffffffffffffffffffffffffffffffffffff1673ffffffffffffffffffffffffffffffffffffffff16815260200190815260200160002060050154036123ee576040517f08c379a00000000000000000000000000000000000000000000000000000000081526004016123e59061532c565b60405180910390fd5b600260008373ffffffffffffffffffffffffffffffffffffffff1673ffffffffffffffffffffffffffffffffffffffff168152602001908152602001600020600701339080600181540180825580915050600190039060005260206000200160009091909190916101000a81548173ffffffffffffffffffffffffffffffffffffffff021916908373ffffffffffffffffffffffffffffffffffffffff160217905550612837565b600360058111156124aa576124a9615245565b5b811480156124ca57506005808111156124c6576124c5615245565b5b6005145b1561264857600073ffffffffffffffffffffffffffffffffffffffff16600460008473ffffffffffffffffffffffffffffffffffffffff1673ffffffffffffffffffffffffffffffffffffffff16815260200190815260200160002060000160009054906101000a900473ffffffffffffffffffffffffffffffffffffffff1673ffffffffffffffffffffffffffffffffffffffff16036125a0576040517f08c379a000000000000000000000000000000000000000000000000000000000815260040161259790615692565b60405180910390fd5b600460008373ffffffffffffffffffffffffffffffffffffffff1673ffffffffffffffffffffffffffffffffffffffff168152602001908152602001600020600701339080600181540180825580915050600190039060005260206000200160009091909190916101000a81548173ffffffffffffffffffffffffffffffffffffffff021916908373ffffffffffffffffffffffffffffffffffffffff160217905550612836565b6004600581111561265c5761265b615245565b5b8114801561267c575060058081111561267857612677615245565b5b6005145b156127fa57600073ffffffffffffffffffffffffffffffffffffffff16600560008473ffffffffffffffffffffffffffffffffffffffff1673ffffffffffffffffffffffffffffffffffffffff16815260200190815260200160002060000160009054906101000a900473ffffffffffffffffffffffffffffffffffffffff1673ffffffffffffffffffffffffffffffffffffffff1603612752576040517f08c379a0000000000000000000000000000000000000000000000000000000008152600401612749906156fe565b60405180910390fd5b600560008373ffffffffffffffffffffffffffffffffffffffff1673ffffffffffffffffffffffffffffffffffffffff168152602001908152602001600020600701339080600181540180825580915050600190039060005260206000200160009091909190916101000a81548173ffffffffffffffffffffffffffffffffffffffff021916908373ffffffffffffffffffffffffffffffffffffffff160217905550612835565b6040517f08c379a000000000000000000000000000000000000000000000000000000000815260040161282c90615790565b60405180910390fd5b5b5b5b5050565b612844613da0565b600160008373ffffffffffffffffffffffffffffffffffffffff1673ffffffffffffffffffffffffffffffffffffffff16815260200190815260200160002060060160009054906101000a900460ff166128d3576040517f08c379a00000000000000000000000000000000000000000000000000000000081526004016128ca906157fc565b60405180910390fd5b600160008373ffffffffffffffffffffffffffffffffffffffff1673ffffffffffffffffffffffffffffffffffffffff168152602001908152602001600020604051806101600160405290816000820160009054906101000a900473ffffffffffffffffffffffffffffffffffffffff1673ffffffffffffffffffffffffffffffffffffffff1673ffffffffffffffffffffffffffffffffffffffff1681526020016001820154815260200160028201805461298e90614f19565b80601f01602080910402602001604051908101604052809291908181526020018280546129ba90614f19565b8015612a075780601f106129dc57610100808354040283529160200191612a07565b820191906000526020600020905b8154815290600101906020018083116129ea57829003601f168201915b50505050508152602001600382018054612a2090614f19565b80601f0160208091040260200160405190810160405280929190818152602001828054612a4c90614f19565b8015612a995780601f10612a6e57610100808354040283529160200191612a99565b820191906000526020600020905b815481529060010190602001808311612a7c57829003601f168201915b5050505050815260200160048201548152602001600582018054612abc90614f19565b80601f0160208091040260200160405190810160405280929190818152602001828054612ae890614f19565b8015612b355780601f10612b0a57610100808354040283529160200191612b35565b820191906000526020600020905b815481529060010190602001808311612b1857829003601f168201915b505050505081526020016006820160009054906101000a900460ff16151515158152602001600782018054612b6990614f19565b80601f0160208091040260200160405190810160405280929190818152602001828054612b9590614f19565b8015612be25780601f10612bb757610100808354040283529160200191612be2565b820191906000526020600020905b815481529060010190602001808311612bc557829003601f168201915b5050505050815260200160088201805480602002602001604051908101604052809291908181526020016000905b82821015612cbc578382906000526020600020018054612c2f90614f19565b80601f0160208091040260200160405190810160405280929190818152602001828054612c5b90614f19565b8015612ca85780601f10612c7d57610100808354040283529160200191612ca8565b820191906000526020600020905b815481529060010190602001808311612c8b57829003601f168201915b505050505081526020019060010190612c10565b505050508152602001600982016040518061010001604052908160008201548152602001600182018054612cef90614f19565b80601f0160208091040260200160405190810160405280929190818152602001828054612d1b90614f19565b8015612d685780601f10612d3d57610100808354040283529160200191612d68565b820191906000526020600020905b815481529060010190602001808311612d4b57829003601f168201915b50505050508152602001600282018054612d8190614f19565b80601f0160208091040260200160405190810160405280929190818152602001828054612dad90614f19565b8015612dfa5780601f10612dcf57610100808354040283529160200191612dfa565b820191906000526020600020905b815481529060010190602001808311612ddd57829003601f168201915b50505050508152602001600382018054612e1390614f19565b80601f0160208091040260200160405190810160405280929190818152602001828054612e3f90614f19565b8015612e8c5780601f10612e6157610100808354040283529160200191612e8c565b820191906000526020600020905b815481529060010190602001808311612e6f57829003601f168201915b50505050508152602001600482018054612ea590614f19565b80601f0160208091040260200160405190810160405280929190818152602001828054612ed190614f19565b8015612f1e5780601f10612ef357610100808354040283529160200191612f1e565b820191906000526020600020905b815481529060010190602001808311612f0157829003601f168201915b50505050508152602001600582018054612f3790614f19565b80601f0160208091040260200160405190810160405280929190818152602001828054612f6390614f19565b8015612fb05780601f10612f8557610100808354040283529160200191612fb0565b820191906000526020600020905b815481529060010190602001808311612f9357829003601f168201915b50505050508152602001600682018054612fc990614f19565b80601f0160208091040260200160405190810160405280929190818152602001828054612ff590614f19565b80156130425780601f1061301757610100808354040283529160200191613042565b820191906000526020600020905b81548152906001019060200180831161302557829003601f168201915b5050505050815260200160078201805461305b90614f19565b80601f016020809104026020016040519081016040528092919081815260200182805461308790614f19565b80156130d45780601f106130a9576101008083540402835291602001916130d4565b820191906000526020600020905b8154815290600101906020018083116130b757829003601f168201915b50505050508152505081526020016011820180548060200260200160405190810160405280929190818152602001828054801561316657602002820191906000526020600020905b8160009054906101000a900473ffffffffffffffffffffffffffffffffffffffff1673ffffffffffffffffffffffffffffffffffffffff168152602001906001019080831161311c575b5050505050815250509050919050565b600033905060001515600460008373ffffffffffffffffffffffffffffffffffffffff1673ffffffffffffffffffffffffffffffffffffffff16815260200190815260200160002060060160009054906101000a900460ff16151514613211576040517f08c379a000000000000000000000000000000000000000000000000000000000815260040161320890615398565b60405180910390fd5b6000600460008373ffffffffffffffffffffffffffffffffffffffff1673ffffffffffffffffffffffffffffffffffffffff1681526020019081526020016000209050818160000160006101000a81548173ffffffffffffffffffffffffffffffffffffffff021916908373ffffffffffffffffffffffffffffffffffffffff160217905550868160010181905550858160020190816132b191906150f6565b50848160030181905550838160040190816132cc91906150f6565b5082816005018190555060018160060160006101000a81548160ff02191690831515021790555060036000808473ffffffffffffffffffffffffffffffffffffffff1673ffffffffffffffffffffffffffffffffffffffff168152602001908152602001600020819055506040518060400160405280601481526020017f4d65646963616c205265736561726368204c616200000000000000000000000081525081600901908161337d91906150f6565b5050505050505050565b600033905060001515600160008373ffffffffffffffffffffffffffffffffffffffff1673ffffffffffffffffffffffffffffffffffffffff16815260200190815260200160002060060160009054906101000a900460ff16151514613422576040517f08c379a00000000000000000000000000000000000000000000000000000000081526004016134199061588e565b60405180910390fd5b6000600160008373ffffffffffffffffffffffffffffffffffffffff1673ffffffffffffffffffffffffffffffffffffffff1681526020019081526020016000209050818160000160006101000a81548173ffffffffffffffffffffffffffffffffffffffff021916908373ffffffffffffffffffffffffffffffffffffffff160217905550868160010181905550858160020190816134c291906150f6565b50848160030190816134d491906150f6565b5083816004018190555060056000808473ffffffffffffffffffffffffffffffffffffffff1673ffffffffffffffffffffffffffffffffffffffff168152602001908152602001600020819055508281600501908161353391906150f6565b5060018160060160006101000a81548160ff0219169083151502179055506040518060400160405280600781526020017f50617469656e740000000000000000000000000000000000000000000000000081525081600701908161359791906150f6565b5050505050505050565b6135a9613e18565b600460008373ffffffffffffffffffffffffffffffffffffffff1673ffffffffffffffffffffffffffffffffffffffff16815260200190815260200160002060060160009054906101000a900460ff16613638576040517f08c379a000000000000000000000000000000000000000000000000000000000815260040161362f90615692565b60405180910390fd5b600460008373ffffffffffffffffffffffffffffffffffffffff1673ffffffffffffffffffffffffffffffffffffffff168152602001908152602001600020604051806101400160405290816000820160009054906101000a900473ffffffffffffffffffffffffffffffffffffffff1673ffffffffffffffffffffffffffffffffffffffff1673ffffffffffffffffffffffffffffffffffffffff168152602001600182015481526020016002820180546136f390614f19565b80601f016020809104026020016040519081016040528092919081815260200182805461371f90614f19565b801561376c5780601f106137415761010080835404028352916020019161376c565b820191906000526020600020905b81548152906001019060200180831161374f57829003601f168201915b505050505081526020016003820154815260200160048201805461378f90614f19565b80601f01602080910402602001604051908101604052809291908181526020018280546137bb90614f19565b80156138085780601f106137dd57610100808354040283529160200191613808565b820191906000526020600020905b8154815290600101906020018083116137eb57829003601f168201915b50505050508152602001600582015481526020016006820160009054906101000a900460ff16151515158152602001600782018054806020026020016040519081016040528092919081815260200182805480156138bb57602002820191906000526020600020905b8160009054906101000a900473ffffffffffffffffffffffffffffffffffffffff1673ffffffffffffffffffffffffffffffffffffffff1681526020019060010190808311613871575b5050505050815260200160088201805480602002602001604051908101604052809291908181526020016000905b8282101561399557838290600052602060002001805461390890614f19565b80601f016020809104026020016040519081016040528092919081815260200182805461393490614f19565b80156139815780601f1061395657610100808354040283529160200191613981565b820191906000526020600020905b81548152906001019060200180831161396457829003601f168201915b5050505050815260200190600101906138e9565b5050505081526020016009820180546139ad90614f19565b80601f01602080910402602001604051908101604052809291908181526020018280546139d990614f19565b8015613a265780601f106139fb57610100808354040283529160200191613a26565b820191906000526020600020905b815481529060010190602001808311613a0957829003601f168201915b5050505050815250509050919050565b600033905060001515600260008373ffffffffffffffffffffffffffffffffffffffff1673ffffffffffffffffffffffffffffffffffffffff16815260200190815260200160002060090160009054906101000a900460ff16151514613ad1576040517f08c379a0000000000000000000000000000000000000000000000000000000008152600401613ac890615398565b60405180910390fd5b6000600260008373ffffffffffffffffffffffffffffffffffffffff1673ffffffffffffffffffffffffffffffffffffffff1681526020019081526020016000209050818160000160006101000a81548173ffffffffffffffffffffffffffffffffffffffff021916908373ffffffffffffffffffffffffffffffffffffffff16021790555087816001018190555086816002019081613b7191906150f6565b5085816003019081613b8391906150f6565b508481600401819055508381600501819055508281600601819055506040518060400160405280600681526020017f446f63746f72000000000000000000000000000000000000000000000000000081525081600b019081613be591906150f6565b5060018160090160006101000a81548160ff02191690831515021790555060016000808473ffffffffffffffffffffffffffffffffffffffff1673ffffffffffffffffffffffffffffffffffffffff168152602001908152602001600020819055505050505050505050565b604051806101400160405280600073ffffffffffffffffffffffffffffffffffffffff16815260200160008152602001606081526020016000815260200160608152602001600081526020016000151581526020016060815260200160608152602001606081525090565b604051806101800160405280600073ffffffffffffffffffffffffffffffffffffffff168152602001600081526020016060815260200160608152602001600081526020016000815260200160008152602001606081526020016060815260200160001515815260200160608152602001606081525090565b604051806101400160405280600073ffffffffffffffffffffffffffffffffffffffff16815260200160008152602001606081526020016000815260200160608152602001600081526020016000151581526020016060815260200160608152602001606081525090565b604051806101600160405280600073ffffffffffffffffffffffffffffffffffffffff16815260200160008152602001606081526020016060815260200160008152602001606081526020016000151581526020016060815260200160608152602001613e0b613e83565b8152602001606081525090565b604051806101400160405280600073ffffffffffffffffffffffffffffffffffffffff16815260200160008152602001606081526020016000815260200160608152602001600081526020016000151581526020016060815260200160608152602001606081525090565b60405180610100016040528060008152602001606081526020016060815260200160608152602001606081526020016060815260200160608152602001606081525090565b6000604051905090565b600080fd5b600080fd5b6000819050919050565b613eef81613edc565b8114613efa57600080fd5b50565b600081359050613f0c81613ee6565b92915050565b600080fd5b600080fd5b6000601f19601f8301169050919050565b7f4e487b7100000000000000000000000000000000000000000000000000000000600052604160045260246000fd5b613f6582613f1c565b810181811067ffffffffffffffff82111715613f8457613f83613f2d565b5b80604052505050565b6000613f97613ec8565b9050613fa38282613f5c565b919050565b600067ffffffffffffffff821115613fc357613fc2613f2d565b5b613fcc82613f1c565b9050602081019050919050565b82818337600083830152505050565b6000613ffb613ff684613fa8565b613f8d565b90508281526020810184848401111561401757614016613f17565b5b614022848285613fd9565b509392505050565b600082601f83011261403f5761403e613f12565b5b813561404f848260208601613fe8565b91505092915050565b600080600080600080600080610100898b03121561407957614078613ed2565b5b60006140878b828c01613efd565b985050602089013567ffffffffffffffff8111156140a8576140a7613ed7565b5b6140b48b828c0161402a565b975050604089013567ffffffffffffffff8111156140d5576140d4613ed7565b5b6140e18b828c0161402a565b965050606089013567ffffffffffffffff81111561410257614101613ed7565b5b61410e8b828c0161402a565b955050608089013567ffffffffffffffff81111561412f5761412e613ed7565b5b61413b8b828c0161402a565b94505060a089013567ffffffffffffffff81111561415c5761415b613ed7565b5b6141688b828c0161402a565b93505060c089013567ffffffffffffffff81111561418957614188613ed7565b5b6141958b828c0161402a565b92505060e089013567ffffffffffffffff8111156141b6576141b5613ed7565b5b6141c28b828c0161402a565b9150509295985092959890939650565b600073ffffffffffffffffffffffffffffffffffffffff82169050919050565b60006141fd826141d2565b9050919050565b61420d816141f2565b811461421857600080fd5b50565b60008135905061422a81614204565b92915050565b60006020828403121561424657614245613ed2565b5b60006142548482850161421b565b91505092915050565b614266816141f2565b82525050565b61427581613edc565b82525050565b600081519050919050565b600082825260208201905092915050565b60005b838110156142b557808201518184015260208101905061429a565b60008484015250505050565b60006142cc8261427b565b6142d68185614286565b93506142e6818560208601614297565b6142ef81613f1c565b840191505092915050565b60008115159050919050565b61430f816142fa565b82525050565b600081519050919050565b600082825260208201905092915050565b6000819050602082019050919050565b600061434d838361425d565b60208301905092915050565b6000602082019050919050565b600061437182614315565b61437b8185614320565b935061438683614331565b8060005b838110156143b757815161439e8882614341565b97506143a983614359565b92505060018101905061438a565b5085935050505092915050565b600081519050919050565b600082825260208201905092915050565b6000819050602082019050919050565b60006143fc83836142c1565b905092915050565b6000602082019050919050565b600061441c826143c4565b61442681856143cf565b935083602082028501614438856143e0565b8060005b85811015614474578484038952815161445585826143f0565b945061446083614404565b925060208a0199505060018101905061443c565b50829750879550505050505092915050565b60006101408301600083015161449f600086018261425d565b5060208301516144b2602086018261426c565b50604083015184820360408601526144ca82826142c1565b91505060608301516144df606086018261426c565b50608083015184820360808601526144f782826142c1565b91505060a083015161450c60a086018261426c565b5060c083015161451f60c0860182614306565b5060e083015184820360e08601526145378282614366565b9150506101008301518482036101008601526145538282614411565b91505061012083015184820361012086015261456f82826142c1565b9150508091505092915050565b600060208201905081810360008301526145968184614486565b905092915050565b6145a781613edc565b82525050565b60006020820190506145c2600083018461459e565b92915050565b6000610180830160008301516145e1600086018261425d565b5060208301516145f4602086018261426c565b506040830151848203604086015261460c82826142c1565b9150506060830151848203606086015261462682826142c1565b915050608083015161463b608086018261426c565b5060a083015161464e60a086018261426c565b5060c083015161466160c086018261426c565b5060e083015184820360e08601526146798282614366565b9150506101008301518482036101008601526146958282614411565b9150506101208301516146ac610120860182614306565b506101408301518482036101408601526146c68282614366565b9150506101608301518482036101608601526146e282826142c1565b9150508091505092915050565b6000602082019050818103600083015261470981846145c8565b905092915050565b600080600080600060a0868803121561472d5761472c613ed2565b5b600061473b88828901613efd565b955050602086013567ffffffffffffffff81111561475c5761475b613ed7565b5b6147688882890161402a565b945050604061477988828901613efd565b935050606086013567ffffffffffffffff81111561479a57614799613ed7565b5b6147a68882890161402a565b92505060806147b788828901613efd565b9150509295509295909350565b6000602082840312156147da576147d9613ed2565b5b600082013567ffffffffffffffff8111156147f8576147f7613ed7565b5b6148048482850161402a565b91505092915050565b600082825260208201905092915050565b6000614829826143c4565b614833818561480d565b935083602082028501614845856143e0565b8060005b85811015614881578484038952815161486285826143f0565b945061486d83614404565b925060208a01995050600181019050614849565b50829750879550505050505092915050565b600060208201905081810360008301526148ad818461481e565b905092915050565b6000610140830160008301516148ce600086018261425d565b5060208301516148e1602086018261426c565b50604083015184820360408601526148f982826142c1565b915050606083015161490e606086018261426c565b506080830151848203608086015261492682826142c1565b91505060a083015161493b60a086018261426c565b5060c083015161494e60c0860182614306565b5060e083015184820360e08601526149668282614366565b91505061010083015184820361010086015261498282826142c1565b91505061012083015184820361012086015261499e8282614411565b9150508091505092915050565b600060208201905081810360008301526149c581846148b5565b905092915050565b600080604083850312156149e4576149e3613ed2565b5b60006149f28582860161421b565b925050602083013567ffffffffffffffff811115614a1357614a12613ed7565b5b614a1f8582860161402a565b9150509250929050565b600061010083016000830151614a42600086018261426c565b5060208301518482036020860152614a5a82826142c1565b91505060408301518482036040860152614a7482826142c1565b91505060608301518482036060860152614a8e82826142c1565b91505060808301518482036080860152614aa882826142c1565b91505060a083015184820360a0860152614ac282826142c1565b91505060c083015184820360c0860152614adc82826142c1565b91505060e083015184820360e0860152614af682826142c1565b9150508091505092915050565b600061016083016000830151614b1c600086018261425d565b506020830151614b2f602086018261426c565b5060408301518482036040860152614b4782826142c1565b91505060608301518482036060860152614b6182826142c1565b9150506080830151614b76608086018261426c565b5060a083015184820360a0860152614b8e82826142c1565b91505060c0830151614ba360c0860182614306565b5060e083015184820360e0860152614bbb82826142c1565b915050610100830151848203610100860152614bd78282614411565b915050610120830151848203610120860152614bf38282614a29565b915050610140830151848203610140860152614c0f8282614366565b9150508091505092915050565b60006020820190508181036000830152614c368184614b03565b905092915050565b600080600080600060a08688031215614c5a57614c59613ed2565b5b6000614c6888828901613efd565b955050602086013567ffffffffffffffff811115614c8957614c88613ed7565b5b614c958882890161402a565b945050604086013567ffffffffffffffff811115614cb657614cb5613ed7565b5b614cc28882890161402a565b9350506060614cd388828901613efd565b925050608086013567ffffffffffffffff811115614cf457614cf3613ed7565b5b614d008882890161402a565b9150509295509295909350565b600061014083016000830151614d26600086018261425d565b506020830151614d39602086018261426c565b5060408301518482036040860152614d5182826142c1565b9150506060830151614d66606086018261426c565b5060808301518482036080860152614d7e82826142c1565b91505060a0830151614d9360a086018261426c565b5060c0830151614da660c0860182614306565b5060e083015184820360e0860152614dbe8282614366565b915050610100830151848203610100860152614dda8282614411565b915050610120830151848203610120860152614df682826142c1565b9150508091505092915050565b60006020820190508181036000830152614e1d8184614d0d565b905092915050565b60008060008060008060c08789031215614e4257614e41613ed2565b5b6000614e5089828a01613efd565b965050602087013567ffffffffffffffff811115614e7157614e70613ed7565b5b614e7d89828a0161402a565b955050604087013567ffffffffffffffff811115614e9e57614e9d613ed7565b5b614eaa89828a0161402a565b9450506060614ebb89828a01613efd565b9350506080614ecc89828a01613efd565b92505060a0614edd89828a01613efd565b9150509295509295509295565b7f4e487b7100000000000000000000000000000000000000000000000000000000600052602260045260246000fd5b60006002820490506001821680614f3157607f821691505b602082108103614f4457614f43614eea565b5b50919050565b60008190508160005260206000209050919050565b60006020601f8301049050919050565b600082821b905092915050565b600060088302614fac7fffffffffffffffffffffffffffffffffffffffffffffffffffffffffffffffff82614f6f565b614fb68683614f6f565b95508019841693508086168417925050509392505050565b6000819050919050565b6000614ff3614fee614fe984613edc565b614fce565b613edc565b9050919050565b6000819050919050565b61500d83614fd8565b61502161501982614ffa565b848454614f7c565b825550505050565b600090565b615036615029565b615041818484615004565b505050565b5b818110156150655761505a60008261502e565b600181019050615047565b5050565b601f8211156150aa5761507b81614f4a565b61508484614f5f565b81016020851015615093578190505b6150a761509f85614f5f565b830182615046565b50505b505050565b600082821c905092915050565b60006150cd600019846008026150af565b1980831691505092915050565b60006150e683836150bc565b9150826002028217905092915050565b6150ff8261427b565b67ffffffffffffffff81111561511857615117613f2d565b5b6151228254614f19565b61512d828285615069565b600060209050601f831160018114615160576000841561514e578287015190505b61515885826150da565b8655506151c0565b601f19841661516e86614f4a565b60005b8281101561519657848901518255600182019150602085019450602081019050615171565b868310156151b357848901516151af601f8916826150bc565b8355505b6001600288020188555050505b505050505050565b600082825260208201905092915050565b7f506174686f6c6f676973747320646f65736e2774206578697374000000000000600082015250565b600061520f601a836151c8565b915061521a826151d9565b602082019050919050565b6000602082019050818103600083015261523e81615202565b9050919050565b7f4e487b7100000000000000000000000000000000000000000000000000000000600052602160045260246000fd5b7f4e6f206163636f756e7400000000000000000000000000000000000000000000600082015250565b60006152aa600a836151c8565b91506152b582615274565b602082019050919050565b600060208201905081810360008301526152d98161529d565b9050919050565b7f446f63746f7220646f65736e2774206578697374000000000000000000000000600082015250565b60006153166014836151c8565b9150615321826152e0565b602082019050919050565b6000602082019050818103600083015261534581615309565b9050919050565b7f596f7520616c72656164792063726561746520796f75722070726f66696c6500600082015250565b6000615382601f836151c8565b915061538d8261534c565b602082019050919050565b600060208201905081810360008301526153b181615375565b9050919050565b7f506861726d61637920436f6d70616e69657320646f65736e2774206578697374600082015250565b60006153ee6020836151c8565b91506153f9826153b8565b602082019050919050565b6000602082019050818103600083015261541d816153e1565b9050919050565b7f596f7520646f6e277420616464507265736372697074696f6e20696e2074686960008201527f732020656e746974792000000000000000000000000000000000000000000000602082015250565b6000615480602a836151c8565b915061548b82615424565b604082019050919050565b600060208201905081810360008301526154af81615473565b9050919050565b7f50617469656e7420646f65736e27742065786973740000000000000000000000600082015250565b60006154ec6015836151c8565b91506154f7826154b6565b602082019050919050565b6000602082019050818103600083015261551b816154df565b9050919050565b7f706174686f6c6f676973747320646f65736e2774206578697374000000000000600082015250565b6000615558601a836151c8565b915061556382615522565b602082019050919050565b600060208201905081810360008301526155878161554b565b9050919050565b7f6d65646963616c52657365617263684c61627320646f65736e2774206578697360008201527f7400000000000000000000000000000000000000000000000000000000000000602082015250565b60006155ea6021836151c8565b91506155f58261558e565b604082019050919050565b60006020820190508181036000830152615619816155dd565b9050919050565b7f4d65646963616c205265736561726368204c616220646f65736e27742065786960008201527f7374000000000000000000000000000000000000000000000000000000000000602082015250565b600061567c6022836151c8565b915061568782615620565b604082019050919050565b600060208201905081810360008301526156ab8161566f565b9050919050565b7f506861726d61637920436f6d70616e7920646f65736e27742065786973740000600082015250565b60006156e8601e836151c8565b91506156f3826156b2565b602082019050919050565b60006020820190508181036000830152615717816156db565b9050919050565b7f50617469656e742063616e207472616e73666572206461746120776974686f7560008201527f7420706174686f6c6f6769737473200000000000000000000000000000000000602082015250565b600061577a602f836151c8565b91506157858261571e565b604082019050919050565b600060208201905081810360008301526157a98161576d565b9050919050565b7f50617469656e7420646f6573206e6f7420657869737400000000000000000000600082015250565b60006157e66016836151c8565b91506157f1826157b0565b602082019050919050565b60006020820190508181036000830152615815816157d9565b9050919050565b7f596f75206861766520616c7265616479206372656174656420796f757220707260008201527f6f66696c65000000000000000000000000000000000000000000000000000000602082015250565b60006158786025836151c8565b91506158838261581c565b604082019050919050565b600060208201905081810360008301526158a78161586b565b905091905056fea264697066735822122027a1dc74193f6ef2859979272f5684a2d4a77a436dd8e5d545c5b24e522b081364736f6c63430008110033",
  "linkReferences": {},
  "deployedLinkReferences": {}
}